{
    "_format": "hh-sol-artifact-1",
    "contractName": "Save_The_Turtles",
    "sourceName": "contracts/Save_The_Turtles.sol",
    "abi": [
        {
            "inputs": [],
            "stateMutability": "payable",
            "type": "constructor"
        },
        {
            "anonymous": false,
            "inputs": [
                {
                    "indexed": true,
                    "internalType": "address",
                    "name": "donator",
                    "type": "address"
                },
                {
                    "indexed": false,
                    "internalType": "string",
                    "name": "name",
                    "type": "string"
                }
            ],
            "name": "newDonation",
            "type": "event"
        },
        {
            "inputs": [
                {
                    "internalType": "string",
                    "name": "_name",
                    "type": "string"
                }
            ],
            "name": "donate",
            "outputs": [],
            "stateMutability": "payable",
            "type": "function"
        },
        {
            "inputs": [],
            "name": "getAllDonationInfo",
            "outputs": [
                {
                    "components": [
                        {
                            "internalType": "address",
                            "name": "donator",
                            "type": "address"
                        },
                        {
                            "internalType": "string",
                            "name": "name",
                            "type": "string"
                        }
                    ],
                    "internalType": "struct Save_The_Turtles.DonatorInfo[]",
                    "name": "",
                    "type": "tuple[]"
                }
            ],
            "stateMutability": "view",
            "type": "function"
        },
        {
            "inputs": [],
            "name": "getAllDonators",
            "outputs": [
                {
                    "internalType": "uint256",
                    "name": "",
                    "type": "uint256"
                }
            ],
            "stateMutability": "view",
            "type": "function"
        },
        {
            "inputs": [],
            "name": "owner",
            "outputs": [
                {
                    "internalType": "address payable",
                    "name": "",
                    "type": "address"
                }
            ],
            "stateMutability": "view",
            "type": "function"
        }
    ],
    "bytecode": "0x608060405233600160006101000a81548173ffffffffffffffffffffffffffffffffffffffff021916908373ffffffffffffffffffffffffffffffffffffffff160217905550610bee806100546000396000f3fe60806040526004361061003f5760003560e01c80634fb2fec51461004457806385aae3821461006f5780638da5cb5b1461009a578063b5aebc80146100c5575b600080fd5b34801561005057600080fd5b506100596100e1565b60405161006691906107f0565b60405180910390f35b34801561007b57600080fd5b50610084610228565b6040516100919190610874565b60405180910390f35b3480156100a657600080fd5b506100af610231565b6040516100bc91906107d5565b60405180910390f35b6100df60048036038101906100da91906105b1565b610257565b005b60606002805480602002602001604051908101604052809291908181526020016000905b8282101561021f57838290600052602060002090600202016040518060400160405290816000820160009054906101000a900473ffffffffffffffffffffffffffffffffffffffff1673ffffffffffffffffffffffffffffffffffffffff1673ffffffffffffffffffffffffffffffffffffffff16815260200160018201805461018e90610a3c565b80601f01602080910402602001604051908101604052809291908181526020018280546101ba90610a3c565b80156102075780601f106101dc57610100808354040283529160200191610207565b820191906000526020600020905b8154815290600101906020018083116101ea57829003601f168201915b50505050508152505081526020019060010190610105565b50505050905090565b60008054905090565b600160009054906101000a900473ffffffffffffffffffffffffffffffffffffffff1681565b343373ffffffffffffffffffffffffffffffffffffffff163110156102b1576040517f08c379a00000000000000000000000000000000000000000000000000000000081526004016102a890610854565b60405180910390fd5b60016000808282546102c39190610956565b92505081905550600260405180604001604052803373ffffffffffffffffffffffffffffffffffffffff16815260200183815250908060018154018082558091505060019003906000526020600020906002020160009091909190915060008201518160000160006101000a81548173ffffffffffffffffffffffffffffffffffffffff021916908373ffffffffffffffffffffffffffffffffffffffff16021790555060208201518160010190805190602001906103839291906104a6565b5050506000600160009054906101000a900473ffffffffffffffffffffffffffffffffffffffff1673ffffffffffffffffffffffffffffffffffffffff16346040516103ce906107c0565b60006040518083038185875af1925050503d806000811461040b576040519150601f19603f3d011682016040523d82523d6000602084013e610410565b606091505b5050905080610454576040517f08c379a000000000000000000000000000000000000000000000000000000000815260040161044b90610834565b60405180910390fd5b3373ffffffffffffffffffffffffffffffffffffffff167f161a778caa495f0e87c5274fb544dbba01ab55d15edbe637b8663a7e9c62f4b68360405161049a9190610812565b60405180910390a25050565b8280546104b290610a3c565b90600052602060002090601f0160209004810192826104d4576000855561051b565b82601f106104ed57805160ff191683800117855561051b565b8280016001018555821561051b579182015b8281111561051a5782518255916020019190600101906104ff565b5b509050610528919061052c565b5090565b5b8082111561054557600081600090555060010161052d565b5090565b600061055c610557846108b4565b61088f565b90508281526020810184848401111561057457600080fd5b61057f8482856109fa565b509392505050565b600082601f83011261059857600080fd5b81356105a8848260208601610549565b91505092915050565b6000602082840312156105c357600080fd5b600082013567ffffffffffffffff8111156105dd57600080fd5b6105e984828501610587565b91505092915050565b60006105fe8383610774565b905092915050565b61060f816109be565b82525050565b61061e816109ac565b82525050565b600061062f826108f5565b6106398185610918565b93508360208202850161064b856108e5565b8060005b85811015610687578484038952815161066885826105f2565b94506106738361090b565b925060208a0199505060018101905061064f565b50829750879550505050505092915050565b60006106a482610900565b6106ae8185610934565b93506106be818560208601610a09565b6106c781610b2c565b840191505092915050565b60006106dd82610900565b6106e78185610945565b93506106f7818560208601610a09565b61070081610b2c565b840191505092915050565b6000610718601983610945565b915061072382610b3d565b602082019050919050565b600061073b600083610929565b915061074682610b66565b600082019050919050565b600061075e602583610945565b915061076982610b69565b604082019050919050565b600060408301600083015161078c6000860182610615565b50602083015184820360208601526107a48282610699565b9150508091505092915050565b6107ba816109f0565b82525050565b60006107cb8261072e565b9150819050919050565b60006020820190506107ea6000830184610606565b92915050565b6000602082019050818103600083015261080a8184610624565b905092915050565b6000602082019050818103600083015261082c81846106d2565b905092915050565b6000602082019050818103600083015261084d8161070b565b9050919050565b6000602082019050818103600083015261086d81610751565b9050919050565b600060208201905061088960008301846107b1565b92915050565b60006108996108aa565b90506108a58282610a6e565b919050565b6000604051905090565b600067ffffffffffffffff8211156108cf576108ce610afd565b5b6108d882610b2c565b9050602081019050919050565b6000819050602082019050919050565b600081519050919050565b600081519050919050565b6000602082019050919050565b600082825260208201905092915050565b600081905092915050565b600082825260208201905092915050565b600082825260208201905092915050565b6000610961826109f0565b915061096c836109f0565b9250827fffffffffffffffffffffffffffffffffffffffffffffffffffffffffffffffff038211156109a1576109a0610a9f565b5b828201905092915050565b60006109b7826109d0565b9050919050565b60006109c9826109d0565b9050919050565b600073ffffffffffffffffffffffffffffffffffffffff82169050919050565b6000819050919050565b82818337600083830152505050565b60005b83811015610a27578082015181840152602081019050610a0c565b83811115610a36576000848401525b50505050565b60006002820490506001821680610a5457607f821691505b60208210811415610a6857610a67610ace565b5b50919050565b610a7782610b2c565b810181811067ffffffffffffffff82111715610a9657610a95610afd565b5b80604052505050565b7f4e487b7100000000000000000000000000000000000000000000000000000000600052601160045260246000fd5b7f4e487b7100000000000000000000000000000000000000000000000000000000600052602260045260246000fd5b7f4e487b7100000000000000000000000000000000000000000000000000000000600052604160045260246000fd5b6000601f19601f8301169050919050565b7f4661696c656420746f206d616b65206120646f6e6174696f6e00000000000000600082015250565b50565b7f496e73756666696369656e742066756e647320746f206d616b65206120646f6e60008201527f6174696f6e00000000000000000000000000000000000000000000000000000060208201525056fea2646970667358221220ef715a08edcf85d357938af843c4b67e647964300bd9de0660c8a531022b1def64736f6c63430008040033",
    "linkReferences": {},
    "deployedLinkReferences": {}
}